S0190000736F635F414D5F426561636F6E5F424732322E733337B6
S214006000C00A0020396900003569000035690000C3
S214006010F990000035690000356900003569000018
S21400602035690000356900003569000035690000F3
S21400603035690000F0E50200BB6400003569000029
S21400604035690000356900003569000035690000D3
S21400605035690000356900003569000035690000C3
S21400606035690000356900003569000035690000B3
S214006070D19F00003569000035690000B166000058
S214006080BD6600003569000035690000356900000E
S2140060903569000035690000356900003569000083
S2140060A03569000035690000356900003569000073
S2140060B03569000035C2020035690000F5CB0200E4
S2140060C0ADCB0200A9CB020001C40200F1CB020056
S2140060D0B1CB0200C9CB0200B5CB020055CC020002
S2140060E009A70200D1A8020035CC020035690000DD
S2140060F091870000356900003569000035690000A9
S2140061003569000035690000356900003569000012
S2140061103569000035690000356900003569000002
S21400612035690000356900003569000035690000F2
S21400613035690000356900003569000035690000E2
S21400614010B5054C237833B9044B13B1044800E06E
S21400615000BF0123237010BDC00E00200000000009
S2140061600830030008B5034B1BB10349034800E0A1
S21400617000BF08BD00000000C40E00200830030069
S214006180A3F5803A704700BF174B002B08BF134B90
S2140061909D46FFF7F5FF00218B460F461348144A2D
S2140061A0121A27F020F80E4B002B00D098470D4B04
S2140061B0002B00D098470020002104000D000D4859
S2140061C0002802D00C4800E000BF26F0A1FF200007
S2140061D0290000F05BF926F087FF00BF00000800EA
S2140061E00000000000000000C00A0020C00E0020D2
S2140061F0C027002000000000000000007047704725
S214006200F0B50546754C85B000F095FA00F094FAA6
S2140062107349206802F003FB2B68724A23F47F431D
S21400622023F00703934240F0D78000216FF01D0053
S2140062300DF10E0303AA1AF00FFD054628B36A49AE
S214006240206802F0ECFA6949206802F0E8FA00F0EB
S21400625072FA00F071FA664B664A67490093206846
S214006260682302F0DCFA2B46644A6549206802F08F
S214006270D6FA284600F088FA6249206802F0CFFA7B
S2140062805949206802F0CBFAFEE75F4E30461AF016
S2140062906BFC054610B35449206802F0C0FA534917
S2140062A0206802F0BCFA00F046FA00F045FA574BB8
S2140062B0504A514900932068802302F0B0FA544AAD
S2140062C05449206802F0ABFA53492A46206802F087
S2140062D0A6FA4549206802F0A2FAFEE732220346F3
S2140062E01146009030781AF057FC072130781AF0E3
S2140062F075FC4A4B4A4F01934A4B40F2FF221B78EB
S21400630006210093484B38461B7800F091F800F0C1
S21400631012FA00F011FA97F820204449206802F09B
S2140063207EFA29463B4697F8202030781AF06AFC19
S214006330054628B32C49206802F071FA2B492068DC
S21400634002F06DFA00F0F7F900F0F6F92F4B294A43
S2140063502949009320689A2302F061FA2B46274ABF
S2140063602749206802F05BFA284600F00DFA254916
S214006370206802F054FA1C49206802F050FAFEE742
S214006380014630781AF054FC054628B316492068B2
S21400639002F045FA1549206802F041FA00F0CBF900
S2140063A000F0CAF9194B134A134900932068A22338
S2140063B002F035FA2B46114A1149206802F02FFAEE
S2140063C0284600F0E1F90F49206802F028FA06494D
S2140063D0206802F024FAFEE705B0F0BD8C0F00201E
S2140063E0E0E20200A00001007FE30200E5E2020016
S2140063F0B4E30200EAE20200F3E20200FFE2020077
S21400640002E3020017E30200C00A00209FE3020036
S21400641028E302003BE3020053E3020081E30200AC
S214006420DD0E0020C10A0020DC0E00208FE30200F3
S21400643070B504460220A17005212070E17001208D
S214006440FF21059EE3719DF810306271120A2372D7
S21400645060702171A271304627F056F81528B4BF37
S214006460092308230546A3721422314604F10B00C3
S21400647027F052F8142DA8BF1425E3780135EDB2A5
S214006480053365721D4484F8205070BD08B503F0CE
S214006490BCFDFFF7B3FE03F0C5FDFFF7B0FE02F04C
S2140064A0ADFFF8E708B507F0FDFE0EF021FA0AF09A
S2140064B0EAFFBDE808400EF09BBF07F071BD000084
S2140064C008B512F00BFC044807F018FBBDE80840BE
S2140064D0024807F043BB00BF60E502003CE502004F
S2140064E00120704700B5C3B007F072FC07F09BFCB4
S2140064F048B1FFF7F5FF30B101A81AF02EFB10B92E
S21400650001A8FFF77DFE43B05DF804FB00F067B915
S21400651008B50321802001F03DF803214FF4806088
S21400652001F038F803214FF4906001F033F80821A9
S2140065304FF4C06001F02EF808214FF4F06001F02F
S21400654029F808213E2001F025F808212D2001F029
S21400655021F8002008BD000008B5174B1B68C3F3E0
S2140065600743012B0ED1154B04205A6E4FF480239F
S2140065701349520358BF134A4B6601F5104108628F
S21400658058BF536601F00EFF00F03DF901F08AFE99
S21400659001F026FF01F0A8FE01F0E4FE01F0E8FE9F
S2140065A0FFF7B6FF01F08EFE00F022F900F05EFA6B
S2140065B0BDE8084002F032BE0080E00F00800040D8
S2140065C00090004000A00040704708B500F005F9B4
S2140065D003F070FA01F006FF02F06AF906F0ABF875
S2140065E002F0E0FCBDE8084000F054B808B501F041
S2140065F04DFEBDE80840FFF763BF00F09FB8704748
S2140066007047FFF76FBF704770B5114E92B03546B2
S2140066100BAC0FCD0FC495E80700032384E80700F2
S21400662003AD8DF8453006F11C030FCB07AC85E8AB
S2140066300F0006F12C030FCB84E80F00054B214614
S21400664000930BAA2B46044802F0AEFB12B070BDB6
S21400665090E50200000F0020680F0020831E012B2B
S2140066600AD8012908D80422094B1B69C3F3401332
S2140066700521002001F0D0BA0239012907D80128E7
S21400668005D8034B00221B69C3F34013F0E770479D
S21400669000C0034008B50449044802F08DFEBDE87A
S2140066A00840FFF7B1BF00BF0C0B0020400F0020D2
S2140066B0014B186802F03CBC680F0020FFF7F8BFDB
S2140066C0014B1A6A18681047680F002001207047AF
S2140066D00120704710B507F0E7FB0446FFF7F6FF0A
S2140066E0002814BF2046002010BD38B502F088FFF1
S2140066F0044607F0E7FB042817D002284FF00005F1
S21400670008BF0124FFF7DCFF042810D0022808BFCA
S2140067100124FFF7DDFF04280BD0022808BF012460
S214006720002D18BF0024204638BD0125EAE70125C4
S214006730EFE70024F7E7704770470000012208B52E
S214006740074B1A700022074B1A700422064B1A7069
S2140067501F22064B1A7002F029F8054B186008BD78
S214006760140B0020900F0020150B0020160B0020A5
S2140067708C0F0020024B0349186802F050B800BF87
S2140067808C0F0020CCE5020070B50C4C0C49064678
S214006790206802F044F802F009F80546206801F087
S2140067A0F9FF3046FFF7E6FF284601F0F3FF2068C2
S2140067B00449BDE8704002F032B800BF8C0F0020DC
S2140067C0CEE50200D0E50200042208B511460123FA
S2140067D0002001F021FA002008BDFFF7F5BF0422D3
S2140067E008B500231146184601F016FA002008BD29
S2140067F008B501213A2000F067FBFFF787FEBDE8E9
S214006800084000F005B801213A2000F05DBB00000A
S2140068102DE9F047434D88B001AC0FCD0FC495E885
S2140068200700012584E8070001213A2000F04CFB10
S214006830DFF8FC800121282000F046FB3A4B40465A
S21400684001A903938DF8125001F0CCFB2B460422CD
S2140068500021022001F0E0F92A4629460023022002
S21400686001F0DAF902212B460846042201F0D4F999
S214006870042203212B46022001F0CEF94FF002132A
S2140068802A4C0226C4F83036A3F58033C4F82C36DA
S2140068901C230827C4F8346604F5005AC4F81C36CE
S2140068A04FF4487003F0CAFB04F580591420CAF868
S2140068B0707003F0C3FB2320C9F8707003F0BEFBB2
S2140068C0B9214046CAF8707001F0F2FB002330464A
S2140068D01A461946C9F8707001F09EF90023294639
S2140068E01A46304601F098F92B46314630460022CB
S2140068F001F092F92B4600220321304601F08CF974
S214006900404601F0BFFA00212820C4F83016C4F82B
S2140069102C16C4F83416C4F81C1600F0D5FA08B0C5
S214006920BDE8F087D4E5020000127A0000C00340FC
S21400693000C00540FEE7000008B500F013F8064B5F
S214006940064A07498B4201D3FFF71EFC52F8040B98
S21400695043F8040BF6E700BFC00A0020103003001F
S214006960C00E0020044B054A9A60D3F8882042F4F3
S2140069707002C3F88820704700ED00E00060000059
S214006980014B1868704700BF1C0B0020084B1B6F9C
S21400699003F00703022B04D0032B05D0012B05D0F0
S2140069A0FEE7044B18687047034BFBE70348704745
S2140069B0008000401C0B0020200B0020002D310121
S2140069C008B5FFF7E3FF054B1B6FC3F30333013333
S2140069D0B0FBF3F0024B186008BD00BF008000401B
S2140069E0180B00200048704700B4C404014B186818
S2140069F0704700BF200B0020054B1860054B1B6F2F
S214006A0003F00703032B01D1FFF7DABF704700BF7F
S214006A10200B002000800040002070470048704790
S214006A20002D31014FF4004070474FF47A707047E4
S214006A30014B1868704700BF240B0020002303603A
S214006A40704703680B6001607047000005490A68DC
S214006A501318054883428CBF4FF0FF320B60104678
S214006A60704700BF280B002000800020024B1968EA
S214006A70024B18681EF028BD300B00202C0B00209F
S214006A807047000037B5920004460D46019227F085
S214006A9017FC431C0BD060B929462046019A26F005
S214006AA06BFB0028044808BF002003B030BD034835
S214006AB0FBE70348F9E700BF10E000F021E000F034
S214006AC024E000F013B5044601A801F079F99DF81A
S214006AD00630012223804FF4807300206380054B2C
S214006AE09B680A3303F01F0302FA03F3636002B0E5
S214006AF010BD00BF0080E00F01F0DEB808B501F061
S214006B00CBF8002008BD10B5044644EA010313F094
S214006B100303084609D1934201D1002010BD54F862
S214006B20231040F823100133F5E72146920026F0A3
S214006B3033FBF2E710B5044627F0CAFB431C15D01A
S214006B40B0B90C4B20469B680A3303F01F020123A2
S214006B50934023F003032344984201D1002010BD44
S214006B6050F8042B0132F7D00348F8E70348F6E75D
S214006B700348F4E70080E00F0EE000F021E000F0AC
S214006B8024E000F008B500F09BFE014B186008BD3D
S214006B9028160020014B186800F096BE2816002024
S214006BA00A460139014402F057BA4FF04023D3F8A1
S214006BB08420D206FBD4D3F88400C0F3811070473B
S214006BC038B5104B0546D3F820310C4603F00303C6
S214006BD0022B0BD0032B0DD0012B0FD1FFF7D0FECD
S214006BE0052305B1286004B1237038BDFFF7FEFE0B
S214006BF00323F6E7FFF712FF0223F2E70023184607
S214006C00EFE700BF0080004073B50D4600210E4B35
S214006C100191D3F88041064604F00304012C09D004
S214006C20022C0CD00C460EB1019B336005B12C70C3
S214006C3002B070BD01A8FFF7C3FF0F24F3E7FFF70C
S214006C40EDFE0190EFE700BF0080004038B5174B1F
S214006C500546D3F824310C4603F00703013B052B09
S214006C6020D8DFE803F0030F171B0B13FFF788FE8F
S214006C70052305B1286004B1237038BDFFF780FEF8
S214006C800623F6E7FFF7B2FE0323F2E7FFF7AEFEB2
S214006C900423EEE7FFF7C2FE0223EAE7FFF7BCFE97
S214006CA00723E6E700231846E3E700BF008000401E
S214006CB038B5104B0546D3F840310C4603F00303B5
S214006CC0022B0BD0032B0DD0012B0FD1FFF7AAFE02
S214006CD0092305B1286004B1237038BDFFF7A8FE6C
S214006CE00823F6E7FFF7A1FE0B23F2E7002318467A
S214006CF0EFE700BF0080004038B5134B0546D3F8D9
S214006D0000320C4603F00703013B032B18D8DFE8DC
S214006D1003F0020A0E12FFF785FE092305B128606C
S214006D2004B1237038BDFFF783FE0823F6E7FFF7AC
S214006D307CFE0B23F2E7FFF743FE0E23800AEDE707
S214006D4000231846EAE700BF0080004038B5104B25
S214006D500546D3F840320C4603F00303022B0BD053
S214006D60032B0DD0012B0FD1FFF75CFE092305B1D5
S214006D70286004B1237038BDFFF75AFE0823F6E7F3
S214006D80FFF753FE0B23F2E700231846EFE700BF9A
S214006D900080004038B5104B0546D3F860310C46ED
S214006DA003F00303022B0BD0032B0DD0012B0FD1C6
S214006DB0FFF738FE092305B1286004B1237038BDFB
S214006DC0FFF736FE0823F6E7FFF72FFE0B23F2E762
S214006DD000231846EFE700BF0080004010B40D4CBB
S214006DE00B46D4F8204204F00304012C0AD0022CEF
S214006DF00CD008B1002101600BB100221A705DF8BA
S214006E00044B70475DF8044BFFF7DABE5DF8044BA1
S214006E10FFF74EBF00800040B0F5207F1FD009D896
S214006E20B0F5007F15D003D868B1B0F5C07F0AD0A2
S214006E3000200CE0B0F5607FFAD10B4BD3F8800051
S214006E40C0F3011003E0084B186FC0F303300130A5
S214006E507047054BD3F89000C0F30460F7E7024B89
S214006E60186FC0F38020F2E7008000404FF4003235
S214006E7038B50E4B05469A660020FFF7CDFF41F663
S214006E8071320B4B6843DC690A4DDA639A68A84294
S214006E9004F4803422F4401203D9012918BF42F4C6
S214006EA080129A600CB10022DA6338BD0090004070
S214006EB000000340005A620208B5FFF793FDBDE8E4
S214006EC008400021FFF7D2BF420910B510D0012AB2
S214006ED010D00B4B0B4C022A18BF234600F01F00A5
S214006EE051B103F58053012202FA00F0186010BD7C
S214006EF01346F3E7044BF1E703F50053F3E700BF4F
S214006F006880004060820040648000401FB5002317
S214006F1080280446029372D02BD8002873D0A0F1A4
S214006F202004A3B2412B32D8412C30D8DFE804F03D
S214006F306B6E6B6E7D7D7D7D6E6E873C9E623C6E5D
S214006F406E6E2F2F2F2F2F2F82546E6E6EA8A36E6D
S214006F502F2F2F2F2F2F2F2F2F2F2F2F2F6B2F6BC4
S214006F606B6B7D2F2F2F2F2F2F2F2F2F2F2F2F2F66
S214006F706B6BB0F5806F58D021D8B0F5007F4FD03E
S214006F8008D8B0F5807F5FD0B0F5C07F3BD00298C0
S214006F9004B010BDB0F5607F42D0F8D8B0F5207FC1
S214006FA034D0B0F5407FF2D1FFF70AFD02464FF429
S214006FB02070FFF731FFB2FBF0F0400821E0B0F59B
S214006FC0C06F53D00DD8B0F5A06F33D0B0F5B06F0A
S214006FD035D0B0F5906FDAD1002102A8FFF736FE63
S214006FE0D5E7B0F5E06F46D0B0F5F06F48D0B0F515
S214006FF0D06FCCD1002102A8FFF77EFEC7E7FFF7CF
S214007000C5FC0290C3E7FFF7DBFCFAE7FFF7D8FC06
S21400701002464FF42070FFF7FFFEB2FBF0F0F0E7F9
S214007020FFF7B4FC02462046F5E7002102A8FFF76A
S214007030C7FDACE7002102A8FFF7D0FEA7E70021B6
S21400704002A8FFF7E1FDA2E703934FF0E0231B69D8
S2140070505B0705D5FFF7B4FC0390039B029396E706
S2140070600DF1070103A8FFF723FEF6E7002102A8AB
S214007070FFF71EFE8BE7002102A8FFF767FE86E7F4
S214007080002102A8FFF786FE81E7000008B58020F1
S214007090FFF73CFF034B98429EBF4FF48032024BF3
S2140070A01A6708BD005A620200A00040002307B518
S2140070B0B0F5807F8DF802307FD02AD8382800F0CF
S2140070C0A0800CD8243883B2092B10D809280ED8F3
S2140070D0DFE800F06D6D6D6D0D0D670D3987522878
S2140070E065D009D83D283ED03E2800F090809DF817
S2140070F0020003B05DF804FB8028F8D1474B1B6FF5
S21400710003F00703013B032BF1D8DFE803F0484404
S2140071104276B0F5D06F64D01BD8B0F5A06F70D0B3
S2140071200BD8B0F5806F42D0B0F5906FDFD100205D
S2140071300DF10201FFF78AFDD9E7B0F5B06F30D048
S214007140B0F5C06FD3D100200DF10201FFF7B0FDFE
S214007150CDE7B0F5006FEAD00BD8B0F5E06F56D0AB
S214007160B0F5F06FC3D100200DF10201FFF712FE5B
S214007170BDE7B0F5086FBAD1284BD3F8003103F05D
S2140071800303022B33D0032B35D0012B37D1FFF767
S2140071902DFC032300E005238DF80230A7E7022329
S2140071A0FAE700200DF10201FFF72EFD9FE7002011
S2140071B00DF10201FFF704FD99E701934FF0E0237C
S2140071C01B695B0707D5FFF7FBFB0C238DF8033025
S2140071D09DF80330E0E70DF1030101A8FFF768FD15
S2140071E0F6E700200DF10201FFF786FD7FE7FFF7C7
S2140071F01FFC0823D0E7FFF70FFC0723CCE701238B
S214007200CAE700200DF10201FFF7E8FD6FE7002056
S2140072100DF10201FFF79AFD69E700BF008000400C
S21400722008B5FFF743FF082812D00938C0B2012876
S21400723011D84FF40012094B4FF6FF705A6603F54B
S214007240D8335B6A13F0010F18BF4FF4FA7008BD0D
S214007250034B1888FBE74FF6FF70F8E700900040F6
S214007260500B002070B504468020FFF71FFF032850
S2140072707CD04FF40022424B42495A6645F60E0334
S2140072800222C1F88030404B9A62012203F58053F7
S2140072909A628A6D12F48032FBD1637820781B05DF
S2140072A043EA0063A079257C0343E078667C43EAE2
S2140072B00043207943EA0033607943EA80130B6188
S2140072C08B69E07A03F000430343E07943EA806386
S2140072D0207A43EA0063607A43EA0043A07A43EAEE
S2140072E000238B61637B096A002B18BF0822207B72
S2140072F021F00D0143EA010343EA800342EA030258
S214007300204B1A62A27B4FEA421230D1986AE17B88
S21400731020F0330042EA0112024342F001029A6270
S2140073201A4A996D32EA0101FBD1022216498A6295
S2140073301A659A6D5200FCD41869A27820F4700081
S21400734040EA02504FF0004218610F4B9A611DB997
S214007350022203F580539A6216B901220C4B9A62F8
S214007360A37C1BB1074B0B4AC3F8802070BD996AFB
S21400737021F0330131430A4342EA4502EFE700BFFA
S2140073800090004000C0004000D0004003000140D4
S21400739000E00040F1A7FFFF014B93F900007047A3
S2140073A0DC160020F0B54FF480061B4A417884783E
S2140073B0C378057856664FF4D156022702F5B832E0
S2140073C05662164E4F2977604FF0010728BF4F21AF
S2140073D006F5805677601669F603FCD441EA052167
S2140073E051611B01417943EA04230B43017943EAC7
S2140073F041039360C37981791B0143EA4113417AC3
S2140074000B43017A43EA41035360837A13B16FF466
S214007410D1535362F0BD00BF009000400010024000
S214007420014B1880704700BF500B00204FF400122D
S21400743008B5184B5A660223174A5360936813F42C
S2140074408033FBD1012822D1FFF7D0FA134B9842A4
S21400745015D003F5122303F5F863984213D0104BAA
S21400746000EB8002400AB3FBF0F0520A0A4BDA62E5
S214007470012218635A620022074B5A6008BD45F67F
S2140074807A10084AF2E745F61A00074AEEE7536212
S214007490F1E700BF009000400040024000F04902C3
S2140074A064666666D8B80500BBCF05000029CCBF69
S2140074B001210021FFF7DABCB0F5207F10B50C469D
S2140074C042D008D8B0F5007F33D003D888B1B0F5E5
S2140074D0C07F0ED010BDB0F5607FFBD11F4B013CC6
S2140074E0D3F8801021F0300141EA0414C3F880403C
S2140074F0F0E7FFF7E1FC00F035F84FF48031184A6A
S214007500164B1167196F013C21F4704141EA0434AF
S2140075101C67FFF755FA0446FFF747FBC0F1020168
S2140075202046FFF7C3FF00F023F8BDE81040FFF742
S214007530ADBD0A4B013CD3F8901021F0F85141EA5A
S2140075400464C3F89040C5E7044B013C196F21F46E
S214007550806141EA84241C67BCE700BF00800040CD
S2140075600090004002214FF42070FFF7A5BF0000F6
S21400757008B54FF4C070FFF7C9FCBDE808400449E1
S21400758088428CBF022101214FF42070FFF794BF80
S21400759080F0FA02B0F5807F70B50C4600F0FE80F1
S2140075A02AD8382800F0528111D8243883B2092B03
S2140075B016D8092814D8DFE810F0E000E000E00054
S2140075C0E00013001300D1001300480038015228D1
S2140075D000F0D38005D83D2853D03E2800F04781E0
S2140075E070BD8028FCD18B1E052B00F2B480DFE82E
S2140075F003F0AF9DB26DB2ACB0F5D06F00F0158160
S21400760034D8B0F5A06F00F0218117D8B0F5806FA0
S21400761000F0B380B0F5906FE2D1023CE4B2052CE6
S2140076208CBF00219A4B9B4A98BF195DD2F8243133
S21400763023F007030B43C2F82431D1E7B0F5B06F4F
S21400764000F08C80B0F5C06FCAD1083CE4B2032CC1
S2140076508CBF0021904B8F4A98BF195DD2F84031FD
S21400766023F003030B43C2F84031B9E7B0F5006FCF
S214007670D3D017D8B0F5E06F00F0F980B0F5F06F12
S214007680AED1083CE4B2032C8CBF0021834B814A68
S21400769098BF195DD2F8603123F003030B43C2F89C
S2140076A060319DE7B0F5086F9AD1CC1EE4B2052C88
S2140076B08CBF00217A4B774A98BF195DD2F800310B
S2140076C023F003030B43C2F8003189E700250226A6
S2140076D00121022000F0B8F9FFF7EEFBFFF742FFAA
S2140076E04FF480316F4B6B4A1967136F23F0070313
S2140076F033431367FFF764F90646FFF756FAC0F1FF
S21400770002013046FFF7D2FE0121002000F0DCF92E
S214007710FFF72EFFFFF7BAFC002D7FF461AF032CB6
S2140077207FF45EAF0122604B9A6259E74FF4002265
S2140077305C4B03265A66012203F540539D6A03F507
S2140077408053C5F340059A62C2E700250426BFE7CA
S21400775000250126BCE700252E46B9E7022C03D0FB
S214007760A4F10F00444244414A4AD2F8803123F043
S21400777003031C43C2F8804132E7023CE4B2032C08
S2140077808CBF0021494B434A98BF195DD2F820317F
S21400779023F003030B43C2F8203121E7A1F10804CC
S2140077A0082C3FF61DAF01A353F824F0D177000054
S2140077B0D1770000E1750000D1770000FF77000068
S2140077C0E1750000E1750000E1750000D17700006A
S2140077D04FF480322F4B3649586E03F580535A6665
S2140077E00B6A43F001030B62C1035CBF314B5A6660
S2140077F04FF0E022136923F004031361F0E64FF420
S2140078008032244B2A49586E03F580535A660B6A19
S21400781023F001030B62C3035CBF264B5A664FF08E
S214007820E022136943F00403E7E7083CE4B2062CC1
S2140078308CBF0021204B174A98BF195DD2F8003242
S21400784023F007030B43C2F80032C9E60F2C0CD016
S214007850102C14BF002102210E4AD2F8203223F049
S21400786003030B43C2F82032BAE60121F4E7083CD2
S214007870E4B2032C8CBF0021104B064A98BF195D5A
S214007880D2F8403223F003030B43C2F84032A7E697
S2140078905CE602000080004058E6020058E602005F
S2140078A069E602000090004000E0004054E6020056
S2140078B000C0074000A0004062E6020058E6020052
S2140078C0EFF3108072B6704700B962B67047EFF3F8
S2140078D01180302383F31188704780F31188704736
S2140078E0194B10B51B6873B3184A5268012A2AD080
S2140078F0174A8020C2F80031FFF7D8FB05281FD1B1
S2140079004FF4C070FFF788FA0128044604D102211C
S2140079104FF4C070FFF7D0FD07220E4B1A6101220C
S214007920A3F580535A60094A1369DB07FCD5012C7E
S21400793009D12146BDE810404FF4C070FFF7BCBD2A
S2140079400122054B5A6010BDE016002000C0014021
S2140079500080004000E0014000D0014000224FF4CB
S2140079600031074B1A60074A516602F59832526892
S214007970012A02BF044AD2F800211A60704700BFED
S214007980E016002000900040008000404FF04022AB
S214007990536F417823F4407343EA012353677047DB
S2140079A07047704710B5044608B1FFF7D7FF0E4A78
S2140079B0136943F00403136101F0F8FEFFF7F0FFCC
S2140079C0FFF77EFF26F074FCFFF77EFFFFF7E9FF68
S2140079D001F000FF1CB1BDE81040FFF781BFBDE815
S2140079E01040FEF7EDBF00BF00ED00E010B5044606
S2140079F008B1FFF7B3FF0C4A136943F004031361A1
S214007A0001F0D4FEFFF75CFF26F052FCFFF75CFFA8
S214007A1001F0E0FE1CB1BDE81040FFF761BFBDE815
S214007A201040FEF7CDBF00BF00ED00E0FFF796BFA9
S214007A30FFF756BF4FF04022D36E017923F0300394
S214007A400B43D36670477047F8B504464FF04023A3
S214007A50D3F88420D106FBD4D3F88430C3F3811343
S214007A609C422DD0FEF792FF012C064602D12146FD
S214007A70FFF71CFDFFF724FF4FF00072114B07467F
S214007A805A662046FFF7DFFF4FF480634FF040252D
S214007A90621E93402B676B6E9A0103D4D5F8843030
S214007AA09B060AD53846FFF70FFF022C08D1304652
S214007AB0BDE8F8400021FFF7F9BCD5F88430EAE7C6
S214007AC0F8BD00BF0060004007B518B90191FEF789
S214007AD05DFF0199064B1B7843B1064B984205D8CB
S214007AE0012003B05DF804EBFFF7AEBF0220F8E715
S214007AF0E4160020005A62020278034B012100209F
S214007B001A70FFF7E1BF00BFE41600204FF00042F6
S214007B1010B501244AF6CD31144B5A66144A03F5C3
S214007B200B2354605A6C1964224078B9996811F096
S214007B30010F104903D08C60D86AC007FCD501231A
S214007B404B6012B10C4B0D4A1A6410BDD96A090776
S214007B50FCD42021074B59620121A3F5805399607C
S214007B6005494B6A9B06FCD5EBE700BF009000403A
S214007B700050094000600940004009403254FFFFB1
S214007B804FF0004238B5184B184C5A66012203F5E0
S214007B900C235A604AF6CD33656C2364437815404F
S214007BA0934013434FF04022D363A368827823F0B8
S214007BB0740343EA0213C278002A14BF0422002288
S214007BC01343A3600279837943EA0223236142794F
S214007BD0C37943EA022363610078FFF797FF0DB18C
S214007BE0034B2364012038BD00900040004009404C
S214007BF03254FFFF70B5054614460E46FFF760FE8A
S214007C00296881EA040202EA06044C402C60BDE8BA
S214007C107040FFF759BE0000F8B504460D461F46F3
S214007C2016464AB101238B403021184A01FB002238
S214007C30F7B141F2100153503023072D4FF00F01DA
S214007C4004FB03F317D8A80006FA00F28140104898
S214007C501844FFF7CFFF56B9012130230B4801FA2D
S214007C6005F503FB040077B141F21003C550F8BDDB
S214007C7042F21001DFE7A5F10800800006FA00F2E4
S214007C8081400448E4E742F21003EFE700C00340F7
S214007C9004C003400CC003404FF40032054B9A6604
S214007CA041F6713203F51C33DA63012203F5005303
S214007CB0DA6070470090004041F671320121064BB1
S214007CC0DA6303F50052D1600022DA634FF4003223
S214007CD0A3F518339A667047000003404FF09043B0
S214007CE05A6812B19A6A002AFAD17047CB784A7855
S214007CF010B55B010C7843EA82030A79234343EA12
S214007D0002130C22424302F190421363012C02BF7D
S214007D108A78024B43F8202010BD00BFE88003405D
S214007D2008B54FF090435A6802B960B15B680BB172
S214007D30FFF7D4FF4FF0904130B10120074B586059
S214007D40FFF7CCFFC86008BDFFF7C8FF0223CB6073
S214007D50FFF7C4FF0122024B5A60F4E70010004808
S214007D60002000484FF090435B6870B50BB1FFF7FA
S214007D70B5FF0121104B4578596083780679002BB2
S214007D80C37814BF02240024002B14BF0422002250
S214007D904379DB0043EA06132B43234313434FF098
S214007DA090429360054B59600378002B14BF0B4636
S214007DB00223D36070BD00BF0020004800100048BA
S214007DC04FF48032064B5A6603F5E6235B69C3F32D
S214007DD08512827003F03F021B0B427003707047DF
S214007DE00090004070B5054616461C4621B94FF473
S214007DF02070FFF78BF80146402C1BD003D8DCB16F
S214007E00202C1BD070BD602CFCD1042303FB06F293
S214007E10560806EB4113B3FBF2F3094A203B02EA8D
S214007E20C303AA6822F06002AA60AA681443AC6082
S214007E30EB61E7E70623E9E71023E7E70823E5E732
S214007E40F8FF7F0038B50546144621B94FF4207078
S214007E50FFF75CF8014601396400B1FBF4F1090252
S214007E60E96138BD012200F580535A60CB43934048
S214007E7003F00A034361416111B900F50050426006
S214007E8070470000012200F5805310B55A6040F696
S214007E90AA6341F20502436100230E498360C3656D
S214007EA0C26000F500520361C361C36491640A496D
S214007EB08365884202D0094CA04207D188420365F8
S214007EC002D0064B984201D100234365012353603C
S214007ED010BD00BFFFFF010000C0054000000640C7
S214007EE070B50D46FFF7CEFF012300F58056736090
S214007EF0AB7C04461BB1836843F080438360EB7C15
S214007F005BB1354A2B7D944245D1A2F51032C2F8BA
S214007F108C31E36D43F08003E3652A8A6B7B204651
S214007F201343EA891343E3602B7BD5E90112FFF77D
S214007F3059FF6B7D1BB1A36843F48033A360AB7D10
S214007F401BB1A36843F40043A360EB7D2A7E1B07A6
S214007F50120502F4E00203F0E0431343A365697ED2
S214007F601D4A8B1E012B1D4B1FD894421BD002F5B9
S214007F70804294420CBF01224FF0FF3203EB4213C3
S214007F80022041F21C620329985020D10423F36595
S214007F902B78636170BD124A944204BFA2F520326A
S214007FA0C2F89C31B5E70022E8E794420DD00C4AAF
S214007FB094420CBF01224FF0FF3203EB4213022023
S214007FC042F21C6201299850DFE70022F5E70422FE
S214007FD004F50053DA65DBE700C0054000C0034047
S214007FE00000064038B50D46FFF74CFF0122A97B7E
S214007FF000F580535A602A8A8368002914BF4FF41C
S2140080008061002142F0010213432A7D0B43002ABF
S21400801014BF4FF000520022836083680446134367
S2140080208360AB7C5BB11D4AEB7C90422DD1A2F500
S2140080301032C2F88C31E36D43F08003E3652B7B8E
S2140080402046D5E9011243F48053E360FFF7FAFEB9
S2140080506B7B0BB1102363616B7D1BB1A36843F48C
S2140080608033A360AB7D1BB1A36843F40043A360D9
S214008070EB7D2A7E1B07120503F0E04302F4E002C4
S2140080801343A3652B78636138BD054A904204BF4D
S214008090A2F52032C2F89C31CDE700BF00C00540F3
S2140080A00000064083691B06FCD5406AC0B27047D4
S2140080B083695A06FCD5C16383699B06FCD5406A72
S2140080C0C0B2704783695B06FCD5C1637047000089
S2140080D038B50446054D1EF041FB0FCC0FC594E89D
S2140080E0030085E80300002038BD00BFE816002026
S2140080F047F6FF739A42F0B563D0022963D8334B34
S214008100CF0003EBC10013F831108478012913D196
S2140081100025C3781B1B9D4202D3E018C0B2F0BDF9
S214008120591B4668A3EB510136F911609642D4BF3D
S2140081300D4601F1FF33EEE740680028EFD0B0F9B6
S2140081400010914204DBB0F902109142B8BF11460C
S21400815082883B44FF2A19BFC8222826B0F9062089
S214008160B0F90860A2EB01020CBF0125002592FBC6
S214008170F6F25F782A447B1E934228BF13464FF4DC
S2140081807A7E00EBC305AE68EA88AC4611FB026255
S2140081901E4622EAE272013302F5FA729F42B2FBF1
S2140081A0FEF204D9BCF80CC008359445EBD200EBBF
S2140081B0C6008088904228BF1046A04238BF20469E
S2140081C0ACE7FF20ABE70020A9E700BFE8160020D9
S2140081D00229F0B553D82B4800EBC10410F8311033
S2140081E0636801290FD1E078A478904294BFC4EB6D
S2140081F00001C4EB0201001BCAB28242C8BF0022C3
S21400820033F91200F0BD002B39D0A178914202D389
S214008210B3F90200F6E7E178B3F900009142F1D92C
S21400822099886478A1F1FF06013C714203F10405C8
S214008230E4B2714103F10C071FFA82FCCEB2B442DD
S21400824016D805EBC1014FF47A756A43B1F90240BE
S2140082504968521A04EBD47102EB610292FBF4F205
S2140082609042CFDBB3F902009042CBDC10B2C9E7F4
S21400827037F831E04E1CE645E3D33146DEE70248E8
S214008280C0E700BFE81600200080FFFF08B50448DE
S214008290FFF71EFFBDE8084001201EF061BA00BFD0
S2140082A070E6020007B56B46054A1068516803C3BE
S2140082B06846FFF765FC002003B05DF804FB00BFCE
S2140082C0F4E602004FF0402213B50024536F6846D0
S2140082D043F00103536700948DF80440FFF7AAFBB0
S2140082E0204602B010BD000070B586B001AA154643
S2140082F0184B03F11006144618685968083303C46F
S214008300B3422246F7D119889B782180A370124B7E
S214008310D3F84C21120314D4D3F85041E4B28DF8AC
S2140083200E40FFF739F8204480F308008DF80D0062
S2140083300A48FEF761FB2846FEF794FF002006B0C9
S21400834070BD074B1C884FF6FF739C4208BF78240D
S214008350E5E700BFFCE602000080E00F00F04902FF
S2140083600001E00F08B50120FFF760F8002008BD07
S2140083701FB50B4A01AB1068516803C31189927A86
S21400838019809A70252301A88DF80530FFF70AF8A2
S2140083906420FFF745F8002005B05DF804FB00BF39
S2140083A00FE702006FF00402502110B50A480B4C8C
S2140083B012F0800FD3B21BBF03F00F03043BA318C9
S2140083C01B1802F101020CBF83F800131976402A2D
S2140083D0EED1002010BD00BF00ED00E000E100E09F
S2140083E000F07AB838B501F065FB0446E0B901F054
S2140083F061FC4FF4167343430C4803F5742303F2F1
S2140084003F23B3FBF0F30A4A0A4913600A220D68B9
S2140084100948013A12F0FF0240F8043BF9D103EB99
S214008420C3022B4413440B60204638BD40420F0065
S2140084303C170020081700200C170020704700008B
S214008440012208B5034B1A7001F028FC024B186095
S21400845008BD00BF0417002038170020F8B5144CDC
S214008460237823B301F01AFC124B134D1B68134EEE
S214008470C01A012838BF0120114B124F18602B7804
S21400848056F8232046F82300111A3A680E48521A66
S2140084900A213A600932B2FBF1F20133DBB2026024
S2140084A0B3FBF1F201FB12332B7000232370F8BDEF
S2140084B00417002038170020341700200C1700205F
S2140084C000170020081700203C170020014B1868F2
S2140084D0704700BF3C17002020234FF400220A49B3
S2140084E081F82C33094B5A66094A03F5A0404267C7
S2140084F002674FF4805003F540530344C1F88401EB
S21400850048605A67704700BF00E100E000900040F6
S214008510010000A0054B064A1B78916DC90700D5DF
S21400852013B10028F9D17047012070475417002076
S21400853000C000402DE9F843874B1E6F9D6A9C6A79
S214008540F00705F0020504F001044CD50127834925
S214008550834A91F80090DFF828821767B9F1000F78
S21400856000F0ED800020087098F80010B94200F284
S214008570E18002219762A2F5805291629A6DD10342
S214008580FCD478495A6B096822F470620A435A632D
S2140085907548764A99690068126821F47F0102439B
S2140085A021F47F410A439A617148724A1969126838
S2140085B0006821F47F6121F00F0102430A431A612B
S2140085C06D499A69096822F0FF020A439A610223FC
S2140085D0002D40F0AB80624A93620123002C00F02D
S2140085E0A780664A936216F000527FD04FF0010EC5
S2140085F05B4F63493A67594A574B82F800E00A785E
S214008600DFF864C172440A705A6B564902F470600F
S21400861008609869554900F47F4008609969DFF85A
S214008620588101F47F01CCF80010D3F818C05FFA27
S2140086308CFCC8F800C0D3F810C0DFF838810CF402
S2140086407C6CC8F800C0D3F810C0DFF824810CF0AA
S2140086503F0CC8F800C0C7F828E04FF0020EDFF85D
S2140086601CC1CCF828E04FF0004ECCF828E0D3F838
S21400867058C01CF4803FFAD14FF0004C22F47062D0
S21400868042F40072B0F5C84FC7F828C05A6302D843
S214008690B1F5C80F0CD9304A3A499369096823F4F2
S2140086A07F0323F47F4343EA012343EA01439361B4
S2140086B0294A35491369096823F47F6323F00F03B9
S2140086C0880843EA910343EA80131361936923F011
S2140086D0FF030B4393610223002D37D102F50052AE
S2140086E093620123002C33D0244A9362002E1BDAB7
S2140086F04FF000421A4B18491A67244A12789AB16A
S21400870001229A620222A3F580539A628A6DD203EE
S214008710FCD44FF000429A61022205B9104B9A62CF
S2140087200123BCB1154A9362BDE8F883134A53E7A8
S2140087300B4A57E7FFF782FE144B1F7053E7FFF70D
S2140087408DFE00F06DFF88F800904CE70B4AC7E7F7
S214008750034ACAE7024AE6E700C000405417002072
S21400876000E0004058170020501700204C1700204B
S21400877048170020441700204017002000D0004073
S21400878055170020580B0020540B002056170020C9
S214008790FFF7D0BE10B50446FFF792F8024B1C60F8
S2140087A0FFF792F8002010BD5C17002010B5FFF709
S2140087B087F8034B1C68FFF787F8204610BD00BFFC
S2140087C05C17002007B530B9CDE90012FFF7EEFFC1
S2140087D0DDE9001230B1436823B1006803B05DF8EC
S2140087E004EB1847232003B05DF804FB30B51C46A5
S2140087F085B058B9CDE90012FFF7D8FFDDE90012C1
S21400880004B903AC20B9232005B030BD03B903ACCE
S2140088108568002DF7D023460068A847F4E70EB415
S21400882077B507AB53F8046B05460193B0B9FFF76D
S214008830BDFF044605463046019924F081FEAC4251
S214008840064602D02046FFF7A5FF002ED4BF3720ED
S214008850002003B0BDE8704003B07047FFF7A6FFE6
S21400886085420446E7D02846FFF794FFE3E700205A
S2140088707047FEE74FF4005300204B60704701201E
S21400888070470020704707B5002001AB0190FFF746
S214008890ADFF0198002808BF4FF0FF3003B05DF829
S2140088A004FB10B514460020FFF78CFF204610BDD1
S2140088B0034B0222186800238068194624F060BD26
S2140088C07C0C002090F82A3001223BB190F82E3024
S2140088D0022B03D180F82E20184670471346FBE77C
S2140088E080F82410704790F82400704790F82B000A
S2140088F070470000002809DB0122430900F01F0032
S21400890002FA00F0024A603342F82300704700BFC4
S21400891000E100E0F8B504460D4690F82B3081B132
S21400892073B990F82C60FEF7CBFF05460121304660
S21400893000F0A4FC2846FEF7C7FF012384F82B307E
S214008940F8BD002BFCD090F82C70FEF7B9FF064659
S2140089502946384600F092FC3046FEF7B5FF84F80C
S2140089602B50EDE770B504460568FFF71FFF8442FD
S21400897002D10020FFF70EFF95F92800FFF7BAFF97
S21400898095F92830002B0DDB01215A0903F01F034F
S21400899001FA03F31449203241F82230BFF34F8F17
S2140089A0BFF36F8F95F92900FFF7A4FF95F92930DB
S2140089B0002B0DDB01215A0903F01F0301FA03F314
S2140089C00949203241F82230BFF34F8FBFF36F8F33
S2140089D000232846C4E90033C4E90433A360EB68E7
S2140089E0BDE87040184700BF00E100E02DE9F04701
S2140089F0044616460D4690F82480FEF768FF94F865
S214008A002A2003469AB1FEF768FF94F82D90FEF7E9
S214008A1057FF07460121484600F030FC3846FEF76F
S214008A2053FFFEF754FF0022034684F82A20184618
S214008A30FEF753FF2E44B8F1000F23D1AE4205D106
S214008A40204663680121BDE8F047184794F82630B1
S214008A50002BF3D02046236815F8011B9847002802
S214008A60ECD0BDE8F08794F826305BB12B780A2B63
S214008A7003D10D212046236898472046236815F821
S214008A80011B9847AE42EED1DAE72DE9F7434FF0E7
S214008A900009044690461E46C3F800904F1E3368F1
S214008AA0434505D2FEF713FFA269C2B9FEF715FFCC
S214008AB094F827305BB91123012220460DF10701F7
S214008AC08DF80730FFF792FF012384F827303368CC
S214008AD0002B0CBF1B20002003B0BDE8F083E1692B
S214008AE022698A5C07F8012F2569226A01359542BA
S214008AF008BF4D46A2692561013AA261FEF7EDFE68
S214008B00A36820469847336801333360C7E708B543
S214008B10FFF76CFF002008BDF8B51F4653680646F1
S214008B200C461546002B6BD09368002B6AD030227B
S214008B300021204624F057FB6B682046E361AB68B3
S214008B4023622B7B84F82430AB7B276084F82530A7
S214008B5040F201130127E384069B6360079BA36032
S214008B60089BE3602B7884F828306B7884F82930EB
S214008B70254B34607360254BB360254B3361254B22
S214008B807361254BF360254B3362254B84F82E70BA
S214008B90B361244BF3619DF8283084F82D309DF89E
S214008BA0243084F82A7084F82C300023697B84F8FB
S214008BB02B30FFF7AFFE95F90100FFF79BFE95F906
S214008BC00130002B06DB5A0903F01F039F40164BAB
S214008BD043F8227095F90000FFF78CFE95F90030F7
S214008BE0002B08DB0122590903F01F0302FA03F3E6
S214008BF00D4A42F821303046FFF7CCFD0020F8BD84
S214008C002220FCE72120FAE70F8B00008B8A000069
S214008C10E1880000E788000065890000C58800003C
S214008C2015890000ED88000000E100E010B504465C
S214008C30FEF74DFEA269236A9A4203D2FEF74DFE66
S214008C40012010BDFEF749FE0020FAE737B50446BE
S214008C500D46FEF73CFE94F8253002466BB1132D08
S214008C6007D1002384F8263003B0BDE83040FEF775
S214008C7034BE112D01D10123F4E76369E169104682
S214008C80CD54A16963690131A161216A01338B4228
S214008C90636104BF00236361FEF71FFE0423A2691D
S214008CA084F82E30236A9A420BD1132301222046E1
S214008CB00DF107018DF80730FFF798FE002384F8C2
S214008CC0273003B030BD90F82A3073B5044603F061
S214008CD0FF01A3B9436801919847012384F82A301D
S214008CE094F82D60FEF7ECFD05460199304600F03D
S214008CF0C5FA2846FEF7E8FD022384F82E3002B0B7
S214008D0070BD026BD36C43F00403D364704710B598
S214008D100446026B93695906FCD5002394F8371075
S214008D201A4694F83600FEF777FF002394F83910B9
S214008D301A4694F83800FEF76FFF94F83E30DA07CC
S214008D4007D5002394F83B101A4694F83A00FEF72D
S214008D5063FF94F83E309B0707D5002394F83D1038
S214008D601A4694F83C00FEF757FF206B0021FFF7E9
S214008D7079F8A08E0021FEF7A7F8002010BD08B5F0
S214008D80006BFFF79FF9002008BD036BDA6C19B182
S214008D9042F00102DA64704722F00102DA6401222E
S214008DA003F500539A6470472DE9F04101271C46ED
S214008DB0594B86B00293594B0C9D0193584B9046E5
S214008DC000930A46CDE903772946564BFFF7A4FEE3
S214008DD0064600287AD1236839462B63A3883A20B2
S214008DE0AB86E37985F83730A37985F83630637A31
S214008DF085F83930237A85F83830E37A85F83B30C1
S214008E00A37A85F83A30637B85F83D30237B85F876
S214008E103C30FEF759F83B460422E179A079FEF78C
S214008E20FBFE3B460222617A207AFEF7F5FE3946C3
S214008E30A088FEF749F888F8006041462068FFF7EA
S214008E404FF81422A37B5B0103F1804303F57033D4
S214008E50C3F81C26E179A27942EA0142C3F8342617
S214008E60617A227A42EA0142C3F82C2685F83E60EF
S214008E7098F81930032B4CD8DFE803F01A022C467A
S214008E800123002785F83E3000230222E17AA07AEB
S214008E90FEF7C2FEE37AA27AA17B42EA0342224BA5
S214008EA049015A500422236803F58053DA65A7B9AE
S214008EB0A379052185F83630E37985F837302068C0
S214008EC0C36C43F00403C364FEF7CCFF304606B021
S214008ED0BDE8F081022385F83E3000230422617B42
S214008EE0207BFEF799FE022741F21C61A27B0F4B06
S214008EF003EB42104750607B217BB13241EA0041D0
S214008F0003EB42139960D3E70323012785F83E302D
S214008F10BAE72326DAE700BF0F8D0000038D0000B6
S214008F208B8D00007F8D000024D6034000C00340D8
S214008F30036B10B59B690446190609D5FFF776FE44
S214008F40B0B1206BFFF7AEF801462046FFF77EFE75
S214008F50236B9A6CD20711D5012103F50052916458
S214008F609B699B060AD52046BDE81040FFF7ABBEBE
S214008F70226BD36C23F00403D364E9E710BD000032
S214008F80BFF34F8FBFF36F8F054B5A6A22F48032C0
S214008F905A62D3F8942022F00102C3F89420704756
S214008FA000ED00E070B52548254CFFF7E9FF844248
S214008FB008BF4FF08043234A18BF20F01F03D2F8A3
S214008FC0C01018BF203B21F0FF0141F0A001B3F113
S214008FD0005FC2F8C0100CD31B4D1C4E296843F02E
S214008FE00103C2F898100131C2F89C60C2F8A030A4
S214008FF02960844210D01448154B0268114923F0AA
S2140090001F0343F00303C1F89820C1F89C30114BAE
S2140090100132C1F8A0300260BFF34F8FBFF36F8FED
S2140090200522084BC3F894205A6A42F480325A62EA
S214009030BFF34F8FBFF36F8F70BD00BFE00C0020F3
S214009040B80E002000ED00E06017002003000020AE
S214009050D70E0020E1FFFF3F10B51446FFF790FF44
S2140090601F2C21D9194A1A4CD2F8C03021F01F0102
S21400907023F47F4343F48073C2F8C030C30618BF9E
S21400908020F01F002368114A18BF203020F01F0070
S214009090C2F8983040F0030041F003010133C2F8F3
S2140090A09C00C2F8A0102360BFF34F8FBFF36F8FF2
S2140090B00522064BC3F894205A6A42F480325A625C
S2140090C0BFF34F8FBFF36F8F002010BD00ED00E0A1
S2140090D060170020BFF34F8F0549064BCA6802F49D
S2140090E0E0621343CB60BFF34F8F00BFFDE700BFC6
S2140090F000ED00E00400FA0508B5FFF7EBFF08BD39
S214009100034B1B78002B14BF01200220704700BFC2
S214009110941700200329F8B598BF124B05460E4653
S2140091208CBF00245C5C032805D8DFE800F002084A
S2140091300B0E44F002040C4B1F684FB9F8BD44F008
S2140091400804F8E744F02004F5E744F08004F2E76A
S2140091507B681A68144203D0314628465B689847F5
S2140091603F68EAE71AE702009017002038B5104D6E
S2140091702B78ABB10F4C23781BB100F057FB0023C4
S2140091802370002000F074FB0B4C50B100F07AFB0B
S2140091900023012120782B70FFF7BCFF01232370EA
S2140091A038BD0122054B1A702278054B1A70F7E776
S2140091B08E17002089170020801700208D170020AA
S2140091C0A017002010B5FEF77BFB064B04461B7865
S2140091D01BB1BDE81040FEF777BBFFF7C7FF204680
S2140091E0F7E700BF88170020002814BF0121FF21E1
S2140091F0074A13780B44137008D0064B1B78012BD4
S21400920004D9054B1B780BB9FFF7B0BF704700BFFA
S21400921094170020801700208D17002070B5FEF7E9
S2140092204FFB114E054633788BB900F043FC0446DD
S21400923020B12846FEF748FB204670BD00F03AFDF8
S2140092400A4B18600A48FDF7F9FB0A4B1C6000F051
S2140092502FFA00F04BFB084B002418600123284629
S2140092603370FEF731FBE7E78A1700209C170020D3
S21400927090170020A41700208417002000292DE94D
S214009280F34114BF0121FF21254A00F1FF30135C92
S2140092900B4413543AD0234E3278012A36D9FFF7BE
S2140092A02FFF0128044634D81F4FFEF709FB3B78F2
S2140092B01BB31E4D2B781BB901222A701C4A137053
S2140092C0DFF8708098F8003033B1019000F0AEFA05
S2140092D00023019888F80030FEF7F6FA012000F027
S2140092E0C7FAFEF7EDFA2B782BB1019000F0CAFA18
S2140092F0002301982B7000233B70FEF7E5FA3078C8
S214009300A04203D02146FFF705FF347002B0BDE847
S214009310F081032AF3D10228F1D100F001FBEEE739
S21400932094170020801700208E1700208817002032
S2140093308D1700208917002010B50446FEF7C0FAE6
S214009340002C14BF0121FF21064A13780B44DBB220
S2140093501370B3FA83F3BDE81040034A5B09137039
S214009360FEF7B2BA971700209617002068B5FEF7EA
S214009370A7FA094B06461B78012B04D8FEF7A4FA79
S2140093800025284668BD054B1D6800F0B3FA054465
S2140093903046FEF799FAF4E780170020A41700205D
S2140093A007B5FEF78DFA0190FFF7E0FE019803B0CF
S2140093B05DF804EBFEF788BA38B541600446FEF760
S2140093C07FFA054621460448FDF73BFB2846BDE8E4
S2140093D03840FEF779BA00BF90170020054B1B688F
S2140093E05843054B00F5742000F23F20B0FBF3F025
S2140093F0704700BF9C17002040420F002DE9FF4732
S214009400FEF75EFA044600E000BFFDF763F90028A9
S21400941000F09C806D4E6E4F337823B10020FFF72E
S214009420E3FE00233370FFF76BFE0546002800F0CE
S2140094309580851EEDB2012D40F29880FFF760FE04
S2140094400128804604D9634B1B780BB900F0ACF9B1
S214009450614DDFF8A4912878DFF8A0A140450AD036
S214009460002389F800309AF8003013B94146FFF718
S21400947051FE85F8008099F800303BB12B78022B1E
S21400948004D1002389F800301DF070FEB8F1010FFA
S2140094900FD9DFF8408198F8003053B94F4B1B784E
S2140094A023B900F0BDF901224D4B1A70012388F84C
S2140094B00030287800F004FA9AF8003013B1494BCF
S2140094C01B782B7000E000BF2046FEF7FDF9FEF784
S2140094D0F7F9454B04461A7852B100221A70414BF0
S2140094E028781B78984203D101212970FFF712FED5
S2140094F0384600F019FBFDF7F8F8804600288BD1B7
S214009500344F89F800003B789BB1DFF8D4908AF896
S214009510000099F800301BB100F088F989F8008047
S214009520002000F0A5F9002846D000F0ABF9002393
S2140095303B70337823B10020FFF756FE00233370CC
S21400954000212878FFF7E6FD00232B7000E000BF1F
S214009550204604B0BDE8F047FEF7B6B93378002BD6
S2140095603FF46CAFFFF740FE357067E7002003A9B5
S21400957000F05CFB054600287FF460AF1B4B039AA7
S2140095801B689A4205D80120FFF72EFE0123337090
S21400959054E7174BD3F8008000F0ACF90399404429
S2140095A08842F0D20223091ACDE9005338462B46EA
S2140095B0104A00F0E1FA41E7012000F081F9204668
S2140095C0FEF782F9FEF77CF90446A9E79817002013
S2140095D0641700208E1700208017002097170020A1
S2140095E089170020A01700208C1700208417002061
S2140095F0A4170020C5910000961700208D170020A4
S21400960010B5FEF75DF90022044B1C781A70FEF7C1
S2140096105BF900F01FFC2043C0B210BD8B17002082
S21400962010B5094B1B786BB1084C237853B100F08A
S21400963029F90023064A237013700123054A137084
S214009640054A137010BD00BF801700208D1700203C
S2140096508E1700208B1700208C1700207047000004
S21400966073B5114E04463378834212D000238DF82A
S214009670043080B102238DF8053001A8FEF786F984
S2140096800A4D402054B1FFF7A9FE2B68181A28602F
S214009690347002B070BD8DF80500EEE7FFF79EFE51
S2140096A02B681844F3E700BF5C0B0020B0170020BF
S2140096B073B5002401A88DF80440FEF71DFA204675
S2140096C04FF40024FFF7CCFF3149324B0A6F02F00B
S2140096D007021A60D1F82031D1F8240101F5805133
S2140096E04C664FF400344C6601F598318969032ABC
S2140096F000F0070001F0020141D003F003039C1EB6
S21400970063426341022808BF43F001032248234D09
S214009710037061B31E4A3BB9D2F8003103F003036D
S214009720591E4B424B410370D2F8003103F003033D
S214009730022B26D0032B27D0012B18D1FDF756F984
S214009740A8B1174B411EDC6800230246084619469E
S214009750C4F30B04134E013404EB8404E4FB06014B
S21400976023F02AFBFFF73AFE2B6818442860642093
S214009770FFF734FE2B681844286002B070BD012342
S214009780C0E7FDF755F9DBE7FDF746F9D8E700BF78
S21400979000800040A8170020AE170020B017002059
S2140097A000C0014040420F00FEF740B9074B1A7850
S2140097B052B100221A70064A136F23F0070343F0D3
S2140097C001031367FDF7FCB8704700BFAC17002015
S2140097D0008000400E4B10B51B7883B1022000F0CD
S2140097E0E7FB60B100F054FA48B10A4B9A6DD20319
S2140097F006D5DB6D9B0703D50122074B9A6210BD89
S2140098000124064B1C70FEF71BFE034B9C62F6E71A
S214009810AE17002000C0004000D00040AD1700206A
S2140098200122014B1A707047AC17002038B50C4B5C
S2140098301B786BB10B4C23787BB90B4B0B4D9A6D99
S21400984012F4803F05D0DB6D9B0702D50123AB6287
S21400985038BDFEF7F5FD0123AB6200232370F7E762
S214009860AE170020AD17002000C0004000D000401A
S214009870034B1B780BB1FEF74DBE0120704700BFAF
S214009880AE17002008B5FEF7D3F8094A0949136F4A
S214009890096823F007030B431367074B1B7813B1C4
S2140098A00122064B9A62BDE80840FDF789B800BF62
S2140098B000800040A8170020AE17002000E00040FF
S2140098C002280AD003280BD001280CD1064A1369B7
S2140098D023F00403136130BF70470020FEF762B820
S2140098E00020FEF783B8704700ED00E04FF4C87024
S2140098F0FFF774BD08B5054B187818B1FEF7E6FDFE
S21400990000EBD000024B1B68184408BDAE170020C1
S214009910B01700200122014B1A707047AE170020C6
S2140099207047000010B500F0E3FA0A4C0A4B1968BD
S2140099302368C31A01B10BB9206010BD4A699A4268
S2140099403ABF9B1A0022D21A4A6128BF00238968B0
S214009950F0E700BFB8170020CC170020C38870B50A
S21400996004460D463BB9FFF701FD8542064602D286
S214009970FFF716FD35460F4965610B68ABB90C60FD
S214009980A36011E0AD1A9A68184665612AB11346BD
S2140099905A69AA42F6D950B11A4613468460A360A3
S2140099A013B15969491B596170BD0020F0E70C607E
S2140099B0F5E700BFCC17002038B5134D2B685B6960
S2140099C093B1124A022014681C4400F0C5FA2046DF
S2140099D000F096FA00230E492A680B70D08880079C
S2140099E009D501230B7038BD022000F0B5FA02201D
S2140099F000F0D6FAEEE79268002AF4D050690344E5
S214009A00012BEBD9EFE700BFCC170020B8170020DA
S214009A10C017002070B516469DF81420C0E903361E
S214009A200271049ABDF8183002600022C38082607A
S214009A3004460D4600F05CFA3044A0613DB9E36888
S214009A40656113B120462168984796B13546FDF703
S214009A5037FF0646FFF766FF29462046FFF77EFFDC
S214009A60054B1B68A34201D1FFF7A6FF3046FDF762
S214009A702BFF002070BD00BFCC17002000220C4931
S214009A800B687BB183420AD183687AB1936083689E
S214009A901BB15A6941690A445A61002070471A4648
S214009AA09B68EEE70028EFD0022070470B60EEE7D9
S214009AB0CC17002070B5FDF70AFF144E0546347823
S214009AC0FCB9134B1C60134B1C60134B1C8000F03E
S214009AD0CDF9012000F040FA00F094FA0F4B024650
S214009AE0186020B92846FDF7F8FE232070BD2346EF
S214009AF040F2E7310A4823F05FF90A4B1860012369
S214009B0033702846FDF7E9FE0020EFE7B417002083
S214009B10CC170020B8170020C2170020C817002056
S214009B2018FCFFFFBC1700202DE9F0410546F8B1F0
S214009B30FDF7C6FE0F4F0646FFF7F4FE2846D7F899
S214009B400080FFF79BFF044628B13046FDF7BCFEB9
S214009B502046BDE8F081A8453B6803D123B1FFF756
S214009B602BFFF2E7002BF0D1022000F001FAECE721
S214009B702224EDE7CC17002070B586B015461E46A9
S214009B800446059180B1FFF7CFFFBDF82C300022C8
S214009B9002939DF828302046CDE9006305992B46B0
S214009BA0FFF738FF06B070BD2220FBE738B50C463D
S214009BB0054698B191B100230B70FDF788FE012190
S214009BC0074B1B680BB122781AB1FDF786FE002002
S214009BD038BDAB4214BF9B682170F3E72220F7E73D
S214009BE0CC170020F0B51F46002387B00D4616465A
S214009BF004468DF81730A0B10DF11701FFF7D6FF18
S214009C009DF817207AB9BDF83430294602939DF89E
S214009C1030302046CDE900733346FFF7FBFE07B031
S214009C20F0BD2220FBE70320F9E700002DE9F04114
S214009C3007468846FDF74BFE00260546124B1C6875
S214009C4024B92846FDF749FE1B2016E063691E442A
S214009C50E388BB4215D100F04BF90C4C2368C01AC0
S214009C60B0420CD200F044F922683244121A284658
S214009C70C8F80020FDF731FE0020BDE8F081002284
S214009C80F5E7A468DCE700BFCC170020B817002073
S214009C90014B1878704700BFC017002038B5FDF795
S214009CA016FE054600F024F904462846FDF715FE84
S214009CB0204638BD014B1868704700BFC817002003
S214009CC00C4B70B51B680D46834211D340F2E7314A
S214009CD000248C462146084B4FF47A721E680023F7
S214009CE0E0FB06C1604623F067F82860204670BD9A
S214009CF02120FCE7BC170020C81700200F4B10B52A
S214009D001A689AB14FF47A71531E1342A0FB0101F0
S214009D100ED1B2FA82F2C2F11F04531CD243E040C5
S214009D2001FA03F3184321FA02F20243104610BD6B
S214009D30002323F041F80246F8E700BFC8170020CA
S214009D40C2072DE9F34704460BD53F4A1388013373
S214009D509BB21380FFF7E6FD3C4B1B680BB1FFF789
S214009D602BFEA3076DD5FDF7B2FD00260546374648
S214009D70FFF7D8FDB146DFF8D480D8F800400CB124
S214009D8063698BB10022324B012F1A7002D1022E6A
S214009D9008BF1F70002C44D0FFF70EFE284602B006
S214009DA0BDE8F047FDF799BD23461A79217991421F
S214009DB088BF1C469B6813B15A69002AF5D028460E
S214009DC0FDF78BFD256985B300F092F8A269861A27
S214009DD0F317B54279EB030328DA23691344A3612A
S214009DE00123226982B17BB9A91B0191FDF76FFDA2
S214009DF0824601992046FFF7B1FDA36922695046C5
S214009E001344A361FDF769FDE368E688013713B1E3
S214009E10204621689847FDF75AFD0546FFF782FD64
S214009E20ABE7022000F0A4F8B8E72E46FDF74FFD9A
S214009E3082462046FFF722FE5046FDF74EFD0023E1
S214009E40CFE702B0BDE8F087C2170020CC1700208D
S214009E50C417002010B5FDF73AFD034B1C78FDF73C
S214009E603CFD204610BD00BFC41700201FB50024CF
S214009E701C4B012118689A880290D3F806009B7A3A
S214009E8000903E20ADF80C208DF80430FDF71CF84D
S214009E9002A88DF808408DF80C40FDF763FF694670
S214009EA001208DF80040FDF721FF4FF0904240F270
S214009EB0FF31936923F47F7323F0030393610A4B06
S214009EC05961936A13F00803FBD113620120FDF772
S214009ED027FF4FF48052054BC3F880211A6004B068
S214009EE010BD00BF1EE702000020004800E100E0B1
S214009EF04FF090439A6A1207FCD4186A7047000025
S214009F004FF09042936A1907FCD4136A116C526999
S214009F10520604D4CA1A032A01D899420ED1C21A8C
S214009F20022A98BFD81CB0F1FF3F38BF01384FF067
S214009F30904318649A6942F040029A61054A137881
S214009F403BB14FF09041CB6B43F00203CB63002351
S214009F50137070475D0B002082074FF0904200F0B0
S214009F600103916948BF43F040030B439361704778
S214009F70820700F001030AD50121084A43F0400396
S214009F8011704FF09041CA6B22F00302CA634FF083
S214009F9090418A6922EA03038B6170475D0B0020BB
S214009FA0830742BF4022014B5A61704700100048A9
S214009FB04FF0904301285B6904D0022805D1C3F313
S214009FC08010704703F001007047002070470000C3
S214009FD010B5FDF77CFC4FF0904304465B695A06CB
S214009FE0074A03F0010003F0510348BF40F00200A7
S214009FF05361FFF7A5FE2046BDE81040FDF76DBC97
S21400A000002000483E20FCF781BF08B5FCF7A4FA04
S21400A010FCF7DAFAFCF7D9FAFCF7E8FABDE80840EC
S21400A020FCF7EBBA08B5FCF7EAFAFCF7E9FAFCF736
S21400A030E8FABDE80840FCF7E6BA000010B50446AA
S21400A040FCF7BEFC0C4BA0F57A729A4212D84FF47D
S21400A0507A73B0FBF3F05C43084BB3FBF0F0B4FB51
S21400A060F0F0022806D9BDE810400323B0FBF3F059
S21400A07000F006B810BD00BFFFC99A3B40420F0073
S21400A080013800D0FCE7704738B50446FDF718FCE9
S21400A0900546204623F060F804462846FDF714FCE3
S21400A0A0204638BD37B504460191FDF709FC0199F5
S21400A0B00546204623F010F804462846FDF704FC23
S21400A0C0204603B030BD38B50546FDF7F9FB04461B
S21400A0D0284623F049F82046BDE83840FDF7F4BB93
S21400A0E00A4619B1024B00211B681847704700BF8B
S21400A0F0600B002000F4E040B0F5805F04D0A0F5CF
S21400A100005358425841704701207047B0F5105F21
S21400A1100DD009D8B0F5885F10D0B0F5905F0DD09F
S21400A12041F20103984209D06FF08500704721F094
S21400A1304003802B02D0B1F5807F06D111F0070FC7
S21400A14014BF6FF08600002070476FF086007047DF
S21400A1500E4B0340B3F1607F06D1B1F5885F14BFA4
S21400A1606FF0860000207047B3F1707F0BD101F4CA
S21400A170E043B3F5005F06D111F4E06F0CBF6FF05B
S21400A1808600002070476FF0860070470000C07F92
S21400A1908A42F8B507460D4600F01781964B974859
S21400A1A002EA030181420BD0954922F0FF048C425B
S21400A1B006D0944C22F47F7121F00301A1421DD1F8
S21400A1C02B4083420BD08E4B25F0FF01994206D0E0
S21400A1D08C4925F47F7323F003038B420ED115F0D0
S21400A1E0FF030BD0884943F000738B4206D16A40C8
S21400A1F032F0FF030CBF01200020F8BD05F0FE433F
S21400A200B3F1A06F17D102F0FE43B3F1A06F40F098
S21400A210DE8082EA050333F47E1340F0D88015F41E
S21400A2200040EAD0C5F30540C2F3054290428CBF19
S21400A23000200120E1E7B3F1407F40F0B38002F058
S21400A240FE43B3F1407F40F0C28082EA050333F458
S21400A2507E1640F0BC8039462846FFF779FF002876
S21400A26040F0B580694C12F47C1C04EA020438D035
S21400A270B4F1607FC2F3054C7AD16549D3B243F09E
S21400A28000738B4278D003F17E410439012975D9D9
S21400A29060498B4276D001318B4275D001318B42BA
S21400A2A074D001318B426BD001318B426AD00131C0
S21400A2B08B4269D003318B4264D001318B4263D02C
S21400A2C001318B4262D001318B4208BF402615F423
S21400A2D07C1FC5F305435BD1664514BF00200120F3
S21400A2E08BE7B4F1607F2BD14949D3B243F00073BA
S21400A2F08B426ED003F17E41043901296CD9454961
S21400A3008B426FD001318B426FD001318B426FD0C0
S21400A31001318B4263D001318B4263D001318B42D5
S21400A32063D003318B425DD001318B425DD0013169
S21400A3308B425DD001318B4208BF4FF0400C9CE74A
S21400A340B4F1707FC3D107F4E043B3F5005F05D1E5
S21400A3504FF0010CC7F302230CFA03FC07F4E043AA
S21400A360B3F5005FB3D10126C7F302239E40AEE7E4
S21400A370B4F1707FABD1F1E71026A8E71426A6E764
S21400A3804026A4E71C26A2E72026A0E730269EE764
S21400A39012F47C1F01D1B34217D02A047FF52DAFEB
S21400A3A0634544E7B3F1106F11D125F01F6323F422
S21400A3B0702363B902F0FE43B3F1106F07D116485D
S21400A3C0104040F01060A84287E7012015E7002003
S21400A3D013E74FF0100C50E74FF0140C4DE74FF01A
S21400A3E0400C4AE74FF01C0C47E74FF0200C44E7C0
S21400A3F04FF0300C41E700BF00FEFFFF00020006F2
S21400A4000009000600040006FF0000020000C07FEE
S21400A41003000002080000020000FFF643680A4638
S21400A4201B0A10B403D05DF8044B00F0C5BE438889
S21400A430B3B1018801F4E040B0F5805F02D0B0F51A
S21400A440005F02D10733DB1009E047F201008142CA
S21400A4500AD15B080133DB1003EBC3033B33136005
S21400A46000205DF8044B704744F20100814202D19F
S21400A470DB081033F3E747F20200814204D1DB0821
S21400A48003EB43035A33EAE744F20200814204D165
S21400A490DB0803EB43034A33E1E721F0FF01B1F5A4
S21400A4A0E24FCFD0B1F5824F04D10733DB105B000B
S21400A4B00133D4E76FF08500D3E77FB500F0FE46A2
S21400A4C0B6F1106F0D4603D06FF0850004B070BD76
S21400A4D020F01F6424F47024002CF5D10A9C02940A
S21400A4E0099C0194089C009400F08AFF10F1860FE6
S21400A4F0ECD16B681B0AE9D1E6E700002DE9F843CA
S21400A500884617461C4601F051F8054600283FD1FC
S21400A510D8F80060B6F8009009F4E043B3F5804F31
S21400A520F36808BF27F0010737EA030328D17CB396
S21400A530224A24F4FF7323F0010393420BD0204BEE
S21400A54024F0FF029A4206D01E4A24F47F7323F0BA
S21400A550030393421FD114F0FF0304D01A4A43F0BA
S21400A560007393421ED0224648463169FFF710FE1C
S21400A570074668B9224648467169FFF709FED0B912
S21400A5806FF0840500233046C8F8003001F05CF810
S21400A5902846BDE8F88304F0FE43B3F1407F04D1BB
S21400A5A02304E0D56FF08605ECE7B3F1A06FF7D093
S21400A5B0054B9C42D6E73D46EAE700BF0002000690
S21400A5C00009000600040006FF00000238B5037903
S21400A5D004460D4633B9A36820462B6001F034F8D4
S21400A5E038B938BDD0E9081201F0F6F80028F2D0E4
S21400A5F0F7E700232B60F4E700F0FE43B3F1407F5B
S21400A60070B505460E4640F09980FFF7A1FD00287C
S21400A61040F0968015F47C1F05D0C5F30543032B48
S21400A62013700DD86BE04C4B2B40B3F1607F69D1B3
S21400A6304A49EBB243F000738B4231D110231370BA
S21400A640454C2C40B4F1607F6AD14449EAB242F0EE
S21400A65000728A4275D002F17E410439012972D90E
S21400A6603F498A4271D001318A4270D001318A4214
S21400A6706FD001318A4211D001318A4265D0013152
S21400A6808A4264D003318A425FD001318A425ED06A
S21400A69001318A425DD001318A424FD140214BE0E0
S21400A6A003F17E410439012901D81423C7E72C4958
S21400A6B08B4201D11C23C2E72A498B4201D12023B9
S21400A6C0BDE729498B4201D13023B8E727498B42A1
S21400A6D001D14023B3E726498B42EBD001318B42B0
S21400A6E0EDD003318B42E5D001318B42E7D001310A
S21400A6F08B42E9D001318B42EBD0002313706FF010
S21400A70085001DE0B3F1707FF7D101F4E043B3F5A7
S21400A710005FF2D10123C1F302218B40DBB27EE75A
S21400A720B4F1707F0AD106F4E042B2F5005F05D1BD
S21400A7300121C6F3022291408B4201D96FF08600B8
S21400A74070BD1021F8E71421F6E71C21F4E720215C
S21400A750F2E73021F0E700BF0000C07F03000002F0
S21400A76008000002090000020A0000020B000002B6
S21400A7700C0000022DE9F047174624220D46002162
S21400A780044692B00DEB02009A46DDE91A868DF873
S21400A7901F10DDF8709022F026FD1D9B2046002B32
S21400A7A018BF4FF480522B4608BF4FF4005208A93A
S21400A7B0FFF7A4FE044620BBDDF820C009ACBCE8C9
S21400A7C00F000FC49CE8070084E807002846BDF881
S21400A7D024100DF11F02FFF70FFF044688B99DF8FD
S21400A7E01F30B34224D8CDE90339CDE901A8089932
S21400A7F000972B46D1E9081209A800F0AEFD0446E2
S21400A80020B10023C9F800608DF81F309DF81F00A6
S21400A810B04204D2321A2121404422F0E4FC0898C7
S21400A82000F012FF002C18BF204612B0BDE8F087DB
S21400A8306FF08904E5E700232DE9F341D0E90168CC
S21400A84004460F4630461146136000F007FF0546E3
S21400A85088B9304600F004FF054660B9F6B276B90E
S21400A860B8F1000F05D1E36823F47F4323F0030318
S21400A87063B16FF08605284602B0BDE8F081014658
S21400A880A06800F0E6FD0028EDD1F2E74FF6F87379
S21400A89062889A421CD8238B23F00103002BE8D150
S21400A8A0394601A800F040FE05460028E3D10FCC4B
S21400A8B03F683E460FC694E807003B7986E80700E7
S21400A8C00BB9019BBB603B8B23F001033B83D2E7B4
S21400A8D06FF08505CFE770B5046A05460E463CB9AD
S21400A8E00120FFF7DFFB286228B120466E6270BDAC
S21400A8F06FF08A00FBE76FF08C00F8E773B50E4642
S21400A900114605460192FFF7E6FF044620B9314698
S21400A910019A286A22F040FC204602B070BD2DE95C
S21400A920F041089E88461F46048822B96FF08504C9
S21400A9302046BDE8F0812046FFF7DCFB0028F5D076
S21400A94033680BB9D3003360B2F1005FEED24FF636
S21400A950F87331689942E9D82046FFF7D7FB0446DA
S21400A9600028E5D1CD1D0699EB08B1EBD50F0BD32A
S21400A97093420CD14146384622F00EFC3368079AC3
S21400A9800733DB081360D3E76FF08904D0E76FF076
S21400A9908604CDE710B50446006A10B1616AFFF779
S21400A9A09FFB206AFFF78FFB0020C4E9080010BD5C
S21400A9B038B50446FFF7EEFFE3692822012B0CBFEB
S21400A9C005466FF096050021204622F00CFC28462E
S21400A9D038BD13B5044660B101A900F0E7FD044692
S21400A9E038B90198C369012B06D900F02DFE6FF027
S21400A9F08304204602B010BD0379FF2B0BD01BB199
S21400AA00806800F03FFE04460198FFF7D1FF00285B
S21400AA1018BF0446EDE76FF08404F5E773B5044607
S21400AA2008460E4600F09AFB002320461A4601A967
S21400AA30FFF764FD70B93446019D0FCD0FC495E84D
S21400AA40070084E80700338B019803F00103338383
S21400AA5000F0FAFD02B070BD70B5144602881D46BF
S21400AA601046049EFFF746FB50B944F2010322F459
S21400AA704050984204D002F44F42B2F5824F0ED1B5
S21400AA80B4420FD82246284622F086FB0021321B0D
S21400AA90281922F0A8FB0020059B1C6070BD6FF0F3
S21400AAA08500FBE76FF08900F8E72DE9F04188465E
S21400AAB01F4616468CB022B3002301223B6002A933
S21400AAC0FFF71CFDD0B9DDF808C003AC6546CDE93C
S21400AAD00A000FCD0FC495E8070084E80700CDE90B
S21400AAE000674346DCE9081203A800F0FCFB0446B6
S21400AAF0029800F0A9FD002C18BF20460CB0BDE857
S21400AB00F0816FF08900F9E770B51D4644F2010345
S21400AB1014460288049E22F44050984204D002F460
S21400AB204F43B3F5824F13D102F4E042B2F5804FA3
S21400AB300ED1B4420FD82246284622F02DFB002123
S21400AB40321B281922F04FFB0020059B1C6070BDAD
S21400AB506FF08500FBE76FF08900F8E72DE9F0431A
S21400AB608946984617468DB052B3002302A91A4666
S21400AB70C8F80030FFF7C2FCE0B9029E33885B04D9
S21400AB801BD5354603ACCDE90A000FCD0FC495E8BA
S21400AB90070084E80700CDE900784B46D6E908129E
S21400ABA003A800F0ABFB0446029800F04DFD002C15
S21400ABB018BF20460DB0BDE8F0836FF08604F3E7BB
S21400ABC06FF08900F6E72DE9F0411E46002388B0B5
S21400ABD0054688461746CDE9043307923360002AB7
S21400ABE04CD005AA04A9FFF726FE0446D0B928468D
S21400ABF007A9FFF713FC0446A0B90498036AB3B18B
S21400AC00049B41465A882846069206AA029203F1F9
S21400AC10240201925A6A00921B6A3A4600F03CFBF4
S21400AC20044658B1049800B3FFF7C2FE1DE007992A
S21400AC30FFF751FE04460028E2D0F3E70498069B8F
S21400AC404288B2B943802B8813B102889A4212D147
S21400AC502B6A83B96B8813B142889A420BD131466E
S21400AC60FFF7B4FC04460028DCD1204608B0BDE857
S21400AC70F0819A42E7D06FF08604D3E76FF086043F
S21400AC80F3E7036810B5044653B100F0B0FB0023A9
S21400AC902360A38823F4FF7323F00103A38010BD71
S21400ACA01846FCE72DE9F04105460C4600218CB01D
S21400ACB0174603A824229846029122F094FA2B689D
S21400ACC0002B3DD1B8F1000F20463B4614BF4FF491
S21400ACD080524FF4005202A9FFF710FC044600BB56
S21400ACE0029E03AC0FCE0FC496E8070084E8070068
S21400ACF03846BDF80C102A1DFFF77EFC044680B9C6
S21400AD006B79284668F300036B71029B03A9D3E9AD
S21400AD1008230097B8F1000F0FD000F02BFB044675
S21400AD2010B12846FFF7ADFF029800F08DFC002C0E
S21400AD3018BF20460CB0BDE8F08100F02EFBEEE711
S21400AD406FF08804EDE70123FFF7ACBF38B5036862
S21400AD50054614464BB132B100F032FB044610B142
S21400AD602846FFF78EFF204638BD6FF08804FAE7C6
S21400AD702DE9F0411646026805460F469846F2B1A0
S21400AD804279D2071BD50279CAB1B2421AD800F06E
S21400AD9020FB044618B10023C8F800602B71287900
S21400ADA0B04204D2321A2121384422F01CFA284636
S21400ADB0FFF767FF002C18BF2046BDE8F0816FF054
S21400ADC08804E8E76FF08904E5E71FB501240394DB
S21400ADD0089C0294079C0194069C0094FFF7CAFC0A
S21400ADE004B010BD37B50C4D0C462B7ADB070FD5DB
S21400ADF000230A460193014601AB284602F0F2FD05
S21400AE0020B9019BA34218BF6FF0930003B030BD7A
S21400AE106FF08800FAE700BFD01700202DE9F04752
S21400AE201F46002390B0DDF868A00D46DDE91889BE
S21400AE30CAF8003001F0FE43B3F1806F16465AD1CF
S21400AE400B464FF4807206A9FFF758FB00283FD147
S21400AE50DDF818E007ACF446CDE90E00BCE80F00BC
S21400AE600FC49CE80700BEF8003084E8070003F42F
S21400AE70E042B2F5005F14D10121C3F302229140F3
S21400AE807AB11E4825F48072824228D000F5007000
S21400AE90854224D01A48854221D0A0F53F40824200
S21400AEA01DD042F20402934215D0CDE9039ACDE9B3
S21400AEB00178069900962B46D1E9081207A800F0FB
S21400AEC03FFA0446069800F0BFFB002C18BF204649
S21400AED010B0BDE8F0870B4B9D42E6D10C218945AA
S21400AEE006D34046FFF77EFF04460028DDD0E9E79C
S21400AEF06FF08904E6E76FF08600E9E70010C0040B
S21400AF0000FF4004000180042DE9F04705469A46FC
S21400AF10002386B0059305F0FE43B3F1106F084694
S21400AF20DDE90E961746DDF8408022D12B464FF419
S21400AF30804205A9FFF7E2FA044658B953463A4656
S21400AF402846CDE901680599CDF80090FFF7B5FAD7
S21400AF50044628B131464846FFF744FFC8F800606B
S21400AF60059800F071FB002C18BF204606B0BDE81F
S21400AF70F0876FF08604EDE7034610B50C461146E1
S21400AF80DA6900880AB91B6A3BB9FFF7B3F838B12B
S21400AF902046BDE81040FFF725BF6FF0860010BDC5
S21400AFA06FF08500FBE72DE9FF410023CDE9013373
S21400AFB00B60438806460D46002B00F0878002AAE9
S21400AFC001A9FFF738FC044600BB019B1B6A73B15E
S21400AFD00199304601F12403D1E9081200F03EF948
S21400AFE00446002875D00198FFF7D4FC0EE072687E
S21400AFF0170A60D1B6F8008071884046FFF77AF8E5
S21400B00060B14046FFF782F8044660B1019808B187
S21400B010FFF7CEFC204604B0BDE8F08128F0FF0321
S21400B020B3F5E24F4FD108F4E043B3F5805F02D0AA
S21400B030B3F5005F02D1CA1DD7100AE047F201033C
S21400B04098450FD14A080132D21002EBC20202F133
S21400B0503B07039703990198FFF73DFC0446002839
S21400B060B6D0D3E744F20103984503D1CA0802F1EB
S21400B0701007EEE747F20203984505D1CA0802EB2F
S21400B080420202F15A07E4E744F20203984505D16A
S21400B090CA0802EB420202F14A07DAE728F0FF008C
S21400B0A0B0F5E24FC7D0B0F5824F01BFCA1DD2102F
S21400B0B05200571CCDE7304603A900F07DF8044641
S21400B0C00028C7D0A2E76FF085049FE76FF08604DC
S21400B0D0A0E729460198FFF779FA0446002899D098
S21400B0E094E7000008B500F005FA0748037A13F065
S21400B0F0060F03D00822002122F075F8BDE80840AC
S21400B1000C210148FEF7ECBFD017002038B5124DD1
S21400B110297A11F0010102D00024204638BD082209
S21400B120284622F060F802222B7A62F342032B7242
S21400B13000F0D4F9044660B900F03CF810F1860F30
S21400B140044600D028B92B7A43F001032B72002C5A
S21400B150E2D0FFF7C7FFE0E7D017002010B504469F
S21400B160C069FEF7B0FF2046BDE81040242200214B
S21400B17022F039B82DE9F04105460F4690461C46A8
S21400B1809BB119460120FEF78DFF064678B1224690
S21400B190414622F001F8E86908B1FEF794FF002066
S21400B1A0C5E907642F80BDE8F0811E46F3E76FF01F
S21400B1B08C00F8E702F014BC028843884068000A56
S21400B1C047D102F4E040B0F5805F02D0B0F5005FF2
S21400B1D005D10733DB0863B96FF08500704747F287
S21400B1E0010082420FD15B080133DB0803EBC30387
S21400B1F03B3322F0FF02B2F5824F01D1012BEBD098
S21400B20000200B60704744F20100824202D1DB0846
S21400B2101033EEE747F20200824204D1DB0803EB6C
S21400B22043035A33E5E744F20200824204D1DB08C6
S21400B23003EB43034A33DCE722F0FF00B0F5E24FAE
S21400B240C7D0B0F5824FC7D10733DB085B000133A8
S21400B250CFE700236FF086000B6070472DE9F041C2
S21400B260476804463F0A0D461646984611D1078899
S21400B2707F0407D44346324629462046BDE8F041BF
S21400B280FFF77ABE02F082F810F1860FF2D0BDE822
S21400B290F0816FF08600FAE72DE9F04F456885B03B
S21400B2A02D0A0446DDE90E7A894616469846DDF8EC
S21400B2B040B013D1CDE901AB009702F051F910F17F
S21400B2C0860F0DD14346324649462046CDE90FABA0
S21400B2D00E9705B0BDE8F04FFFF721BB6FF0860074
S21400B2E005B0BDE8F08F70B44668360A02D170BC6F
S21400B2F0FFF7B2BB6FF0860070BC70472DE9F347CE
S21400B30045680446DDE90A7A2D0A894616469846B7
S21400B31011D1CDE9007A02F0A9F810F1860F0CD110
S21400B3204346324649462046CDE90A7A02B0BDE891
S21400B330F047FFF7E9BB6FF0860002B0BDE8F08784
S21400B340F0B5D0F804E05FEA1E2E03D1BDE8F04069
S21400B35001F0F4BE6FF08600F0BDF0B5D0F804E062
S21400B3605FEA1E2E03D1BDE8F04002F0E5B96FF0AB
S21400B3708600F0BD13B504464868000A0AD1049852
S21400B380009004F1080002F03FFA08B90623236093
S21400B39002B010BD6FF08600FAE713B504464868A1
S21400B3A0000A0AD10498009004F1080002F05EFA40
S21400B3B008B90623236002B010BD6FF08600FAE7D6
S21400B3C00368062B02D1083002F052BA6FF08600EE
S21400B3D0704710B40468062C04D15DF8044B08309E
S21400B3E002F096BA6FF086005DF8044B704703686B
S21400B3F0062B02D1083002F0DFBA6FF086007047E5
S21400B4002DE9F04198460D4600230E4690B007AC55
S21400B410CDE90E33844617460FCD0FC495E80700D6
S21400B420736884E807001B0A10D1189B60460493D3
S21400B430179B00970393169B07A9CDE90183D6E9CE
S21400B440082301F0FDFE10B0BDE8F0816FF0860025
S21400B450F9E76FF04043421E9A4208D329B100F143
S21400B460404098428CBF00210121084670470121C8
S21400B470FBE7000000F100420332022A38B504461A
S21400B4800D460ED82821144B01FB02339A688242DF
S21400B4901CD1DA69511C1CD000200132DA612B6005
S21400B4A038BD0121FFF7D5FF68B10B4B9A6894426F
S21400B4B0EFD01A6B944204D09A6D944206D1503362
S21400B4C0E7E72833E5E76FF08700E9E76FF08B00E2
S21400B4D0E6E76FF09600E3E7DC170020044A00205A
S21400B4E092F8783043F0010382F87830704700BF56
S21400B4F0DC17002038B501250A4C2046E561FFF729
S21400B50057FA04F128006564FFF752FA04F1500078
S21400B510E566FFF74DFA94F878306FF3000384F889
S21400B520783038BDDC170020F8B51E4C064694F877
S21400B53078300F46D8072ED500252346294618888A
S21400B5401A46A8B12DB91A791AB1DA69002A08BFC5
S21400B5501D460131032903F12803F0D115B96FF018
S21400B5608C001AE001232846EB61FFF721FA2A46F1
S21400B570D369591C02D16FF096000EE0002001330B
S21400B580D361141B084BE4105C4304F10044033CF5
S21400B59034603A60F8BD6FF0880000233B6033608B
S21400B5A0F8E700BFDC170020CDCCCCCC0023F0B5EC
S21400B5B00B60244B074693F878300D46DC0785B0C1
S21400B5C03CD5FFF757FF10F18C0F044625D12946CE
S21400B5D001A8FFF7A9FF0446F8B901232E68CDE9B4
S21400B5E00200B7603046736003AA02A900F04DF966
S21400B5F0044628B9DDE902123046FFF77FF9044613
S21400B600DDE9020100F037F954B12868FFF7D0F9F8
S21400B61014F18C0F08BF6FF08704204605B0F0BD0C
S21400B6202B68DA68D00444BF42F48062DA60DA68D5
S21400B6309104F2D542F40062DA60EEE76FF0880417
S21400B640EBE700BFDC17002038B1C3691BB1013B34
S21400B650C361002070476FF0960070470020704767
S21400B660C0B2FF280CBF6FF086000020704707B5F9
S21400B67000216A4601F0E6FC8C3018BF012003B0BA
S21400B6805DF804FB13B500216A46044601F0DAFCB7
S21400B6908C3002D1002002B010BD0021204601F0FF
S21400B6A0FDFC014628B96A46204601F0CBFC8C30EA
S21400B6B0F0D06FF09800EEE7F8B515460E46074650
S21400B6C00822184621491C4621F066FD00232372F5
S21400B6D06372A372E3726B6839461A0A2373627345
S21400B6E01A0C1B0EA273E3732B8804F12400237438
S21400B6F01B0A63746B88A3741B0AE374EB681A0A4C
S21400B700237562751A0C1B0EA275E3752B691A0A4F
S21400B710237662761A0C1B0EA276E3766B6984F8A3
S21400B72020601A0A237762771A0C1B0EE377330A17
S21400B73084F82130330CA27784F82230330E324658
S21400B74084F82330BDE8F84021F026BD29E7020042
S21400B7502DE9F843232904460F4691469846089E4D
S21400B76004D86FF098052846BDE8F88308221949E2
S21400B77021F002FD05460028F3D1A368002BF0D186
S21400B780216A243FB942C8F80010EAD8B1F5005F34
S21400B790E7D271B9C9F80000E3687360238A338082
S21400B7A0638A73806369F360A3693361E3697361D5
S21400B7B0D9E70120FEF776FCC9F8000030B1D8F8CA
S21400B7C0002004F1240121F0E7FCE5E76FF08C058A
S21400B7D0C9E700BF29E702002DE9FF4106461446E7
S21400B7E0884600293ED0002A3CD0B2F5005F3CD205
S21400B7F002F1240739460120FEF754FC0546B8B38B
S21400B8000346324621464046FFF756FFB6680024F8
S21400B8103046FFF72CFF01281ED021462B463A461D
S21400B8203046009401F02EFB0146C0B9304602AA0D
S21400B83001F008FC044620B9029B9F4205D06FF039
S21400B84098043046002101F029FC2846FEF73BFC10
S21400B850204604B0BDE8F0816FF08A04F5E76FF08B
S21400B8609804F2E76FF08604F2E76FF08D04EFE7D6
S21400B8706FF08C04ECE710B5044608B1FEF730FC18
S21400B8802046BDE81040FEF71EBC2DE9F047D0F874
S21400B89008A086B081460F4616465046002104AAE8
S21400B8A001F0D0FB044610BBDDF8108001204146B5
S21400B8B0FEF7F8FB0546002835D02146504604AA78
S21400B8C0039401F0BFFB044670B903AB0246214661
